:020000040800F2
:100000000090002095130008590D00085B0D0008B2
:1000100000000000000000000000000000000000E0
:10002000000000000000000000000000154C000867
:100030000000000000000000814C00088D4900080D
:10004000E513000800000000E5130008E5130008B0
:10005000E5130008E51300085D0D0008E51300082E
:1000600000000000690D0008790D0008910D0008DE
:10007000BD0D0008E5130008E513000800000000AE
:10008000E5130008CD0D0008E5130008E51300088E
:10009000E5130008E5130008E5130008DD0D00086E
:1000A000010E0008E5130008E5130008250E0008FE
:0800B000E5130008E513000848
:1000C00010B5064C2378002B07D1054B002B02D02E
:1000D000044800E000BF0123237010BD4404002049
:1000E000000000006C640008044B10B5002B03D026
:1000F0000349044800E000BF10BDC04600000000F6
:10010000480400206C640008002243088B4274D32A
:1001100003098B425FD3030A8B4244D3030B8B4208
:1001200028D3030C8B420DD3FF22090212BA030C11
:100130008B4202D31212090265D0030B8B4219D3F2
:1001400000E0090AC30B8B4201D3CB03C01A524112
:10015000830B8B4201D38B03C01A5241430B8B425A
:1001600001D34B03C01A5241030B8B4201D30B0343
:10017000C01A5241C30A8B4201D3CB02C01A52416A
:10018000830A8B4201D38B02C01A5241430A8B422D
:1001900001D34B02C01A5241030A8B4201D30B0216
:1001A000C01A5241CDD2C3098B4201D3CB01C01A30
:1001B000524183098B4201D38B01C01A524143093A
:1001C0008B4201D34B01C01A524103098B4201D328
:1001D0000B01C01A5241C3088B4201D3CB00C01A95
:1001E000524183088B4201D38B00C01A524143080D
:1001F0008B4201D34B00C01A5241411A00D2014632
:10020000524110467047FFE701B5002000F0F0F8BA
:1002100002BDC0460029F7D076E7704703460B437E
:100220007FD4002243088B4274D303098B425FD3EF
:10023000030A8B4244D3030B8B4228D3030C8B421B
:100240000DD3FF22090212BA030C8B4202D3121201
:10025000090265D0030B8B4219D300E0090AC30BD6
:100260008B4201D3CB03C01A5241830B8B4201D383
:100270008B03C01A5241430B8B4201D34B03C01A6C
:100280005241030B8B4201D30B03C01A5241C30AE4
:100290008B4201D3CB02C01A5241830A8B4201D355
:1002A0008B02C01A5241430A8B4201D34B02C01A3F
:1002B0005241030A8B4201D30B02C01A5241CDD2E4
:1002C000C3098B4201D3CB01C01A524183098B422F
:1002D00001D38B01C01A524143098B4201D34B0118
:1002E000C01A524103098B4201D30B01C01A52417B
:1002F000C3088B4201D3CB00C01A524183088B4202
:1003000001D38B00C01A524143088B4201D34B00EA
:10031000C01A5241411A00D201465241104670475C
:100320005DE0CA0F00D04942031000D34042534061
:1003300000229C4603098B422DD3030A8B4212D321
:10034000FC22890112BA030A8B420CD38901921153
:100350008B4208D3890192118B4204D389013AD090
:10036000921100E08909C3098B4201D3CB01C01A65
:10037000524183098B4201D38B01C01A5241430978
:100380008B4201D34B01C01A524103098B4201D366
:100390000B01C01A5241C3088B4201D3CB00C01AD3
:1003A000524183088B4201D38B00C01A5241D9D2EB
:1003B00043088B4201D34B00C01A5241411A00D26C
:1003C0000146634652415B10104601D34042002B68
:1003D00000D54942704763465B1000D3404201B5E7
:1003E000002000F005F802BD0029F8D016E770479C
:1003F0007047C04600B585B00C22002101A805F069
:100400005FFF2A482A4B0360802292034260002348
:100410008360C36002610822426103764376073A33
:1004200082760321C1614362836229314254802173
:1004300049010163436383633C2142541B320264DC
:10044000643242648364C36401F000F8002820D160
:100450000123019300230293039301A9134801F0A0
:10046000C7F9002818D1134B01930423029301A963
:100470000E4801F0BDF9002811D10F4B019308235C
:10048000029301A9094801F0B3F900280AD105B087
:1004900000BD00F023FBDBE700F020FBE3E700F00A
:1004A0001DFBEAE700F01AFBF1E7C04660040020FC
:1004B00000240140040000080800000C30B58FB093
:1004C00004001422002109A805F0FAFE1C220021D4
:1004D00002A805F0F5FE294B22689A4201D00FB020
:1004E00030BD8023DB01029302A802F047FD002803
:1004F0003DD1234B196C80204003014319641A6CD1
:1005000002400092009A596B0122114359635B6BC0
:100510001A400192019B0D2309930A3B0A9300257F
:100520000B95A02009A9C00501F064FC1548164BE5
:100530000360052343608560C5607B3303618033BE
:1005400043618023DB0083612023C361056201F0E6
:100550000FFB00280ED10B4B23659C620022032168
:100560000C2001F099FA0C2001F0C6FAB7E700F070
:10057000B5FABEE700F0B2FAEDE7C046002401404C
:1005800000100240C40400205800024010B504F0DE
:10059000A1F9002201210E4801F0E8FC8021890226
:1005A000A72004F073F940210A4801F0E5FC02217C
:1005B000A02004F06BF9FA24A400200005F0ACFAA6
:1005C0000121A02004F062F9200005F0A5FAEAE775
:1005D000000C00500008005010B5FA20400005F053
:1005E0009BFA8021014801F0C7FCF6E700080050A3
:1005F00010B5074A0021074804F00AFA064B1860B4
:10060000064A0021064804F003FA064B186010BDA4
:100610009C6400088D05000820050020C0640008C7
:10062000D90500082405002000B583B0114A916B5C
:10063000012319439163926B13400193019B0022A4
:100640000321092001F028FA092001F055FA0022BF
:1006500003210A2001F020FA0A2001F04DFA0022BD
:1006600003210B2001F018FA0B2001F045FA03B02A
:1006700000BDC04600100240F0B5DE4657464E466B
:100680004546E0B58BB01422002105A805F018FE00
:10069000644B5A6B042189460A435A635A6B0A40D9
:1006A0000092009A596B202211435963596B0A40FA
:1006B0000192019A5A6B01252A435A635A6B2A40C8
:1006C0000292029A5A6B02218A460A435A635A6B73
:1006D0000A400392039A596B0822114359635B6BDA
:1006E0001A400492049B80214F4B9B4600228901B3
:1006F000180001F03BFC4D4E0022A0210902300001
:1007000001F034FC8021A027FF0500228900380079
:1007100001F02CFC0122C021584601F027FC842165
:1007200001220902380001F021FC414B98460122C8
:100730000921180001F01AFC83239B0105930695FB
:1007400000240794089405A9584601F053FB102390
:10075000059306945346079305A9380001F04AFB18
:100760004B46059384239B030693079405A9300009
:1007700001F040FBA0231B02059306950794089403
:1007800005A9300001F036FB8023DB0105930694B8
:10079000079405A9300001F02DFB80235B00059331
:1007A0000694079405A9380001F024FB86231B0258
:1007B000059306950794089405A9380001F01AFBE3
:1007C0000923059306950794089405A9404601F06E
:1007D00011FB5346059388256D030695079405A9DB
:1007E000404601F007FB4B4605930694079405A984
:1007F000404601F0FFFA302305930695079405A9BA
:10080000300001F0F7FA00220321062001F044F93C
:10081000062001F071F90BB0F0BCBB46B246A94608
:10082000A046F0BD00100240000800500004005037
:10083000000C005010B51448144B0360144B436077
:10084000002383600122C260036143618361C3614D
:10085000036201F0F9FB00280CD100210A4801F0E5
:1008600067FF002809D10021074801F08DFF00280B
:1008700006D110BD00F032F9EFE700F02FF9F2E7F2
:1008800000F02CF9F5E7C04698060020005400401F
:10089000BC7D701010B51448144B0360144B4360BA
:1008A000002383600122C260036143618361C361ED
:1008B000036201F0C9FB00280CD100210A4801F0B5
:1008C00037FF002809D10021074801F05DFF00280B
:1008D00006D110BD00F002F9EFE700F0FFF8F2E7F3
:1008E00000F0FCF8F5E7C046EC0600200058004098
:1008F000BC7D701070B590B00400142200210BA8CC
:1009000005F0DEFC1C22002104A805F0D9FC2368B8
:10091000604A934204D0604A934264D010B070BDE4
:100920002023049304A802F029FB002852D15B4E37
:10093000726B02231A437263726B13400093009B25
:10094000C0239B000B9312230C9300250D950E954D
:100950000C3B0F930BA9524801F04CFAF26B80212B
:1009600089030A43F263F36B0B400193019B4D48EB
:100970004D4B03600A2343608560C5607633036195
:1009800045618561C561056201F0F2F8002824D156
:10099000444BE3639C624548454B03600B23436033
:1009A000053383600023C360802202614361836159
:1009B000C361036201F0DCF8002811D13B4BA36353
:1009C0009C6200220321172001F066F8172001F035
:1009D00093F8A3E700F082F8A9E700F07FF8D7E7E3
:1009E00000F07CF8EAE72D4D6A6B02231A436A6334
:1009F0006A6B13400293029BC0231B010B931223CB
:100A00000C930C3B0F930BA9254801F0F3F9EA6B0B
:100A10008021C9030A43EA63EB6B0B400393039BFA
:100A20002448254B03600C23436000238360C3608C
:100A30008022026143618361C361036201F098F81F
:100A4000002821D11B4BE3639C621C481C4B0360B4
:100A50000D234360033383600023C360802202615F
:100A600043618361C361036201F082F800280ED103
:100A7000124BA3639C6200220321182001F00CF8A2
:100A8000182001F039F849E700F028F8DAE700F01B
:100A900025F8EDE7005400400058004000100240E7
:100AA00000040050280500200800024084050020B2
:100AB0001C000240E0050020300002403C060020FF
:100AC0004400024010B50268034B9A4200D010BDAA
:100AD00000F09EFCFBE7C0460010004072B6FEE747
:100AE00000B593B03422002105A805F0E9FB1022DF
:100AF000002101A805F0E4FB8020800001F06EFEDB
:100B00000123059380235B02069302230C93013398
:100B10000D9300230E9308330F9380239B021093B1
:100B200080239B05119305A801F082FE00280ED1B9
:100B300007230193053B02930023039304930221AF
:100B400001A802F021F9002803D113B000BDFFF77E
:100B5000C5FFFFF7C3FF10B500F046FCFFF7C0FF6D
:100B6000FFF78AFDFFF760FDFFF744FCFFF762FE29
:100B7000FFF790FE00F012F800F06EFB00F040FA74
:100B800000F082FA00F0BAFA00F00EFB03F00CFF5E
:100B9000FFF72EFD03F01CFFFEE7000010B5124822
:100BA000124B036082235B00436000238360E022DA
:100BB000D200C26002220261013A426180229200A8
:100BC0008261E93AFF3AC261036243628362113A89
:100BD000C2620363436302F0CBFB002800D110BD67
:100BE000FFF77CFFFBE7C0464007002000300140D4
:100BF00010B588B004001422002103A805F060FBA2
:100C000022681A4B9A4201D008B010BD184B196CDB
:100C100080204001014319641A6C02400092009A3E
:100C2000596B012211435963596B0A400192019A91
:100C30005A6B022422435A635B6B23400293029B4C
:100C4000C0235B0103930494A02003A9C00501F015
:100C5000D1F8082303930494002305930693079384
:100C600003A9044801F0C6F8CEE7C04600300140B1
:100C7000001002400004005000B583B00E4B196C08
:100C8000012211431964196C0A400092009ADA6B30
:100C9000802149050A43DA63DB6B0B400193019B1A
:100CA000022000220321404200F0F6FEC020C000D6
:100CB00000F0C0FB03B000BD0010024030B587B0AB
:100CC00005001F4AD16B10231943D163D26B134027
:100CD0000093009B01A902A802F036F9059B002BA6
:100CE00016D102F01DF91749FFF70EFA431E1648F8
:100CF000164A0260164AC2604360002303618360A3
:100D0000836102F00DFF041E06D0200007B030BD45
:100D100002F006F94000E6E70B4802F0BFFD041EB2
:100D2000F3D1112000F0E8FE032D01D90124ECE7F6
:100D300000222900112000F0AFFE064B1D60E4E701
:100D40000010024040420F00A407002000100040A5
:100D5000E703000008000020FEE7FEE710B50420CE
:100D600001F014F910BD000010B5024800F0D8FFE2
:100D700010BDC0462805002010B5034800F0D0FF84
:100D8000024800F0CDFF10BD84050020E0050020E2
:100D900010B5064800F0C4FF054800F0C1FF054843
:100DA00000F0BEFF044800F0BBFF10BD3C06002071
:100DB000C40400207C090020F007002010B5024880
:100DC00000F06AFC10BDC0466004002010B5024867
:100DD00002F0A0FD10BDC046A407002010B5074BCF
:100DE0001B689A69E023DB001A4203D0034801F034
:100DF00061FC10BD014801F08DF9FAE7980600206A
:100E000010B5074B1B689A69E023DB001A4203D038
:100E1000034801F04FFC10BD014801F07BF9FAE7EF
:100E2000EC06002010B5024803F0BAF810BDC04629
:100E3000D80900207047000082B00268074B9A4230
:100E400001D002B07047064AD16B02231943D16327
:100E5000D26B13400193019BF3E7C04600040040AE
:100E60000010024010B584B004000368254A934284
:100E700007D0254A93420FD0244A934236D004B07B
:100E800010BD234A116C8020000201431164136CD1
:100E900003400193019BF2E71D4A116C8020800200
:100EA00001431164136C03400293029B19481A4BCF
:100EB00003602C2343601C3B83600023C3608033AA
:100EC0000361803343618023DB0083612023C3619E
:100ED00080235B01036200F04BFE002803D10D4B21
:100EE00063629C62CBE7FFF7F9FDF8E7084A116CF3
:100EF0008020C00201431164136C03400393039BE1
:100F0000BDE7C046002000400044014000480140C9
:100F100000100240F00700208000024010B58AB0A7
:100F200004001422002105A805F0CAF923682E4AFE
:100F300093420AD02D4A934219D02D4A934226D08B
:100F40002C4A93423AD00AB010BD2B4A516B02236F
:100F500019435163526B1A400192019A0122059282
:100F60000693099205A9254800F044FFEBE7224AC1
:100F7000516B022319435163526B1A400292029A39
:100F80000593069305A91D4800F034FFDBE71A4AD4
:100F9000516B012319435163526B13400393039B1D
:100FA000402305933E3B0693013308930233099394
:100FB000A02005A9C00500F01DFFC4E70E4A516B33
:100FC000012319435163526B13400493049B802304
:100FD00005937E3B069303330993A02005A9C00522
:100FE00000F008FFAFE7C0460004004000200040CA
:100FF000004401400048014000100240000400503D
:1010000000B58BB00C22002107A805F059F91C226D
:101010000021684605F054F919481A4B03603F2334
:10102000436000238360F422FF32C2600361836166
:1010300002F0A6FD00281AD100230793099307A9FF
:101040000F4802F0B3FE002814D160230093002360
:1010500001930293049308226946094802F004FEB2
:1010600000280AD10648FFF759FF0BB000BDFFF773
:1010700035FDE1E7FFF732FDE7E7FFF72FFDF1E789
:10108000300900200004004000B589B01C22002176
:1010900001A805F015F91748174B03603F2343607B
:1010A00000238360FF22C2600361836102F038FD88
:1010B000002816D10F4802F063FD002814D16023E8
:1010C00001930023029303930593002201A9094889
:1010D00002F0CAFD00280AD10648FFF71FFF09B039
:1010E00000BDFFF7FBFCE5E7FFF7F8FCE7E7FFF7DC
:1010F000F5FCF1E74C0800200020004000B595B059
:101100001C2200210DA805F0DBF8342200216846DE
:1011100005F0D6F82248234B036000234360836028
:10112000A022C26003614361836102F0F9FC0028E0
:101130002AD11B4802F024FD002828D160230D93FA
:1011400000230E930F931093119312931393002285
:101150000DA9134802F088FD00281BD1002300933D
:1011600001930293039304938022920105920693C4
:101170000C9369460A4802F055FE00280DD1084834
:10118000FFF7CCFE15B000BDFFF7A8FCD1E7FFF7D5
:10119000A5FCD3E7FFF7A2FCE0E7FFF79FFCEEE733
:1011A000980800200044014000B595B01C220021A1
:1011B0000DA805F085F834220021684605F080F876
:1011C0002348244B03603F23436000238360F422C1
:1011D000FF32C26003614361836102F0A1FC002819
:1011E0002AD11B4802F0CCFC002828D160230D93A3
:1011F00000230E930F9310931193129313930022D5
:101200000DA9134802F030FD00281BD100230093E4
:101210000193029303930493802292010592069313
:101220000C9369460A4802F0FDFD00280DD10848DC
:10123000FFF774FE15B000BDFFF750FCD1E7FFF7D4
:101240004DFCD3E7FFF74AFCE0E7FFF747FCEEE78A
:10125000E40800200048014010B51948194B03600C
:10126000E1235B02436000238360C36003610C22BF
:1012700042618361C36103624362836203F034FAB3
:10128000002811D100210E4803F0B2FA00280ED137
:1012900000210B4803F0D2FA00280BD1084803F0D4
:1012A00087FA002809D110BDFFF718FCEAE7FFF71D
:1012B00015FCEDE7FFF712FCF0E7FFF70FFCF2E794
:1012C000D80900200038014030B58FB00400142246
:1012D000002109A804F0F4FF1C22002102A804F058
:1012E000EFFF274B22689A4201D00FB030BD012397
:1012F000029302A801F042FE00283AD1214B196C5A
:101300008020C001014319641A6C02400092009AC7
:10131000596B0222114359635B6B13400193019B8C
:10132000C02309930A9200250B950C950D9509A9E8
:10133000154800F05FFD1548154B036033234360EB
:10134000233B8360C5607033036145618561C5617E
:10135000056200F00DFC00280ED10C4BE3679C6287
:10136000002203211B2000F097FB1B2000F0C4FB90
:10137000BBE7FFF7B3FBC1E7FFF7B0FBEDE7C04604
:101380000038014000100240000400507C09002099
:101390006C0002400D488546FFF74CFD0C480D4996
:1013A0000D4A002302E0D458C4500433C4188C42C0
:1013B000F9D30A4A0A4C002301E013600432A24226
:1013C000FBD304F009FFFFF7C6FBFEE70090002007
:1013D000000000204404002010660008440400209F
:1013E000BC230020FEE7000010B5084A11688023E6
:1013F0005B000B4313600320FFF760FC041E02D068
:101400000124200010BDFFF737FCFAE7002002405E
:10141000034B1B78034A11685B1813607047C04682
:10142000040000206C0A0020014B18687047C04679
:101430006C0A0020034A136803490B4003431360FE
:101440007047C04600000140FFF9FFFF30B583B090
:10145000040000230193002800D106E1836D002BD6
:1014600013D023689A68D2001CD49A68804911402E
:10147000802252050A439A607E4B18687E49FEF727
:1014800043FE01304000019009E0FFF717F8002308
:10149000E3655422A354E4E7019B013B0193019BC4
:1014A000002BF9D123689A68D20000D59DE0A26D87
:1014B00010210A43A265E26D0F390A43E26501205B
:1014C0009A6804210D001540114200D00125A26D3B
:1014D000D20600D5C2E0002D00D0BFE0A26D674962
:1014E0000A400631FF310A43A2659A68D20752D4F6
:1014F000227E9203A1680A43617EC9030A43A57E46
:1015000069030A43216B002901D0802149010A4364
:10151000E1680A432169002969DB802189030A43C4
:101520002C21615C49000A432021615C012961D0C2
:10153000616A002905D0E0256D002940A56A29438C
:101540000A43D9684E4D29400A43DA6063689B0F0D
:101550009B07E26C1A433C21615C012959D0216848
:101560000B69484D2B4013430B616368C022120680
:10157000934210D08022D20593420CD080221206D2
:10158000934208D040490A68404D2A40F025AD03F7
:101590002B4013430B602268536907218B43616B17
:1015A0000B43536121684B6970229343A26B120174
:1015B00013434B612369002B35D12268916A103B9C
:1015C0000B43936223685A6907231340626B9A4264
:1015D0003BD0A36D12229343023A1343A365E36DFC
:1015E0000F3A1343E36501203DE0002068E749001E
:1015F000490894E7002D03D1802149020A4397E767
:10160000A16D20252943A165E16D1F3D2943E165B9
:101610008EE7216C0B43616C0B43A16C0B431343AE
:1016200001221A439BE7802292039342CAD1216888
:101630008B6AE369013B9B001C221A4010235B422A
:101640009340226E13438B62BCE70023E365A36DD6
:1016500003229343023A1343A36504E0A36D1022CF
:101660001343A365012003B030BD0120FBE7C04652
:10167000E8FFFF6F00000020400D0300FDFEFFFFAC
:101680000102FEFF02FCFF1F08270140FFFFC3FF0E
:10169000704770477047000070B5040003681E680B
:1016A0005D68B3070FD5AB070DD5836DDB0604D49A
:1016B000826D80231B0113438365200000F0EAF94B
:1016C000236802221A60730701D56B0703D433071E
:1016D00029D52B0727D5A36DDB0604D4A26D802363
:1016E0009B001343A3652368D968C02212011142ED
:1016F00013D1A27E002A10D11A6812070DD59A685C
:1017000052073BD45A680C218A435A60A36D374A6A
:1017100013400432FF321343A3652000FFF7B8FFE4
:1017200023680C221A60330601D52B062FD4F3054B
:1017300001D5EB0537D4B30501D5AB0540D4F3068D
:1017400017D5EB0615D5236B002B03D02368DB6878
:101750009B070BD0A26D8023DB001343A365E36DD1
:1017600002221343E3652000FFF794FF2368102251
:101770001A60B30401D5AB042FD470BDA36D202231
:101780001343A365E36D1F3A1343E365C5E7A26DF9
:1017900080235B021343A3652000FFF77AFF2368D1
:1017A00080221A60C3E7A26D80239B021343A365C6
:1017B000200000F06DF92368802252001A60BAE719
:1017C000A26D8023DB021343A365200000F061F9C2
:1017D0002368802292001A60B1E7200000F05BF9D4
:1017E0002368802292011A60C7E7C046FEFEFFFF11
:1017F000F0B583B004000023019305695433C35C42
:10180000012B00D130E154230122C25400688368C7
:10181000033216001E401A4209D0A36D1C32134336
:10182000A365012054230022E25403B0F0BD4B68AD
:10183000022B00D1D6E080221206954226D08B4A98
:10184000954223D01F221340103A9A40256E9543AB
:101850002A000D686F032FD1AD0E1F262E409E402B
:10186000164326664D68AB080133E269934213D8EC
:10187000826A1F231D40103B1E00AE40B2430E681B
:10188000B60E3340AB401343836205E0826A0B68B7
:101890005B035B0B13438362206842690B681B0286
:1018A0009A438D682B40724D2B40134343610B6864
:1018B000002B4FDB0020B5E7EF07D0D4AE0727D4CD
:1018C0006E0727D42E0727D4EE0627D4AE0627D4DA
:1018D0006E0627D42E0627D4EE0527D4AE0527D4CE
:1018E0006E0527D42E0527D4EE0427D4AE0427D4C2
:1018F0006E0427D42E0427D4EE0327D4AE0327D4B6
:101900008027FF022E003E403D42A8D01226A6E7C7
:101910000126A4E70226A2E70326A0E704269EE705
:1019200005269CE706269AE7072698E7082696E705
:10193000092694E70A2692E70B2690E70C268EE705
:101940000D268CE70E268AE70F2688E7102686E705
:10195000112684E7474A1168E02252040A404648AB
:10196000834207D04548834222D0454883422CD049
:10197000002057E70802F5D480231B041A433D4991
:101980000B68404803401A430A603F4B18683F49C0
:10199000FEF7BAFB013043001B189B00019302E0E5
:1019A000019B013B0193019B002BF9D1002039E7FA
:1019B000C801DAD480235B041A432E490B683148EE
:1019C00003401A430A6000202CE74B024AD48023CC
:1019D000DB031A4327490B682A4803401A430A606D
:1019E00000201FE780231B069D4202D01F4B9D4213
:1019F00005D1826A0B685B035B0B9A4382620B68BA
:101A0000002B01DB00200DE71A4A12681A498B42AD
:101A100007D01A498B420FD019498B4217D00020AA
:101A200000E7A0235B041A4012490B6815480340E5
:101A30001A430A600020F5E6C0231B041A400D4932
:101A40000B68104803401A430A600020EAE6C023EE
:101A50005B041A4007490B680A4803401A430A60AE
:101A60000020DFE60020DDE60220DEE60400008044
:101A700000FFFF0708270140001000B0004000B839
:101A8000002000B4FFFF3FFE00000020400D0300D7
:101A9000704770477047704770B5002811DB8308A6
:101AA000134EC0339B009D5903242040C000FF22E9
:101AB00014008440A54389010A4082402A439A5178
:101AC00070BD0F230340083B9B0806339B00094A67
:101AD000944663445C6803221040C000FC32150049
:101AE0008540AC4389010A40824022435A60E7E7BF
:101AF00000E100E000ED00E0002805DB1F231840B6
:101B00001E3B8340014A13607047C04600E100E07D
:101B100010B50400036C9B08094A944663449B007B
:101B20004364FF202368184008381421FEF7ECFABC
:101B3000044BA3641F2318401E3B8340E36410BD85
:101B400000820010800802403F2342681340064A8A
:101B50009A1892000265054A4265013B03221A4029
:101B600001239340836570473F8200104009024083
:101B700070B5041E4DD00568274BE8181421FEF7F8
:101B8000C3FA8000206425230222E2542B68234AF2
:101B900013402B6021680A68A368E068034320694A
:101BA000034360690343A0690343E0690343206A78
:101BB000034313430B602000FFF7AAFF8023DB01E0
:101BC000A2689A4218D0626C3F2361680B40136090
:101BD000A36CE26C5A606368013B032B0FD90023AE
:101BE00023656365A3650023E36325220121A154D6
:101BF000013AA354002070BD00236360E3E7200096
:101C0000FFF7A2FF236D00221A60636DA26D5A6078
:101C1000E9E70120EFE7C046F8FFFDBF0F80FFFFB7
:101C200030B5002836D02523C35C022B06D0042310
:101C3000C36320330022C254012030BD0268136800
:101C40000E218B431360426C136813490B401360E1
:101C500001680A6801239A430A60104C62681C21DB
:101C6000056C29408B4013436360836CC26C5A60DF
:101C7000036D002B06D01A6807490A401A60436DAD
:101C8000826D5A6025230122C254013B0022C254B6
:101C90000020D2E70120D0E7FFFEFFFF0000024056
:101CA00070B52523C35C022B03D00423C36301203A
:101CB00070BD026813680E218B43136001680A68C7
:101CC00001239A430A60416C0A68134C22400A605F
:101CD000124C62681C21056C29408B4013436360E1
:101CE000836CC26C5A60036D002B06D01A680A49D7
:101CF0000A401A60436D826D5A6025230122C25446
:101D0000013B0022C254836B002B02D09847002075
:101D1000CEE70020CCE7C046FFFEFFFF00000240F8
:101D200070B5314B1968046825681C23026C134098
:101D300004229A40114216D06A0714D523689B06E4
:101D400003D42368042293432360274C63681C2137
:101D5000026C114004228A4013436360036B002B22
:101D600000D0984770BD02229A4011421CD0AA07A9
:101D70001AD523689B0606D423680A22934323605E
:101D80002523093AC254184C63681C21026C114087
:101D900002228A401343636024230022C254C36A90
:101DA000002BDFD09847DDE708229A401142D9D0B6
:101DB0002B07D7D523680E22934323600A4C626811
:101DC0001C21036C194001231D008D402A436260D1
:101DD000C3632522835423330022C254436B002B58
:101DE000C0D09847BEE7C046000002402523C05C33
:101DF000C0B27047F0B500235AE084685F00032644
:101E0000BE40B4432600CC68BC4034438460446880
:101E100094434A681609012232409A4022434260A4
:101E200056E0DC080834A400265805321A40920017
:101E30000F279740BE430F6997403A003243225024
:101E40005AE0032600E00026A64034003C43434EFF
:101E50001832920094513468EA432600AE434F682A
:101E6000FF0201D52C4326003C4C26606468260006
:101E700016404F68BF0201D52C432600374C6660E0
:101E80008426A459260016404F68BF0301D52C4371
:101E90002600324C8427E6518026A45922404E6801
:101EA000F60301D52A0022432C4D80242A51013308
:101EB0000C682200DA404FD001229A4025001540DC
:101EC0001442F4D003244E683440013C012C94D9D0
:101ED00003224C682240032A09D0C2685E00032412
:101EE000B440A24314008A68B2402243C260032275
:101EF0004C682240022A94D004685E000322170036
:101F0000B740BC434F683A40B24022430260C0220F
:101F100092024C681442CAD09A0814001834A400E3
:101F20000E4EA75903241C40E4000F26A640B743D9
:101F3000A026F605B04286D0094EB04208D0094E20
:101F4000B04207D0084EB04200D17AE705267BE7C1
:101F5000012679E7022677E7F0BDC0460018024067
:101F60000004005000080050000C0050002A01D06E
:101F7000816170478162FCE7426913000B401B04DA
:101F800091431943816170477047704710B5040051
:101F9000094BDB68184204D1074B1B69234205D16A
:101FA00010BD054BD860FFF7EFFFF5E7024B1C6152
:101FB0002000FFF7EAFFF3E70018024003689A6980
:101FC000920701D500229A6203689A69D20703D466
:101FD0009A6901210A439A61704730B5CB0709D548
:101FE0004123C35C28221340282B01D0F22302E0B6
:101FF0001A3300E000238A0709D544241C434122F8
:10200000825C28252A40282A0FD0F42213430AB2E2
:10201000002A0CDB10290DD020290ED040290FD02A
:1020200001680A689A430A6030BD2300EFE7B822CE
:102030001343EFE790221343EEE720221343EDE72B
:1020400040221343ECE7000010B5041E59D0412391
:10205000C35C002B43D041232422E254226813683E
:1020600001218B4313602268274B61680B40136189
:102070002268936825490B409360E368012B34D0B4
:10208000226884231B02A1680B439360E368022B40
:1020900032D0226851681E4B0B4353602268D368CC
:1020A0001A490B40D360236962691343A269120283
:1020B00021681343CB602268E369216A0B431360F4
:1020C0002268136801210B431360002363644122DB
:1020D0001F31A15423630132A354002010BD4033AB
:1020E0000022C254FEF706FCB5E7226880231B02DB
:1020F000A1680B439360C9E72368802212015A60EC
:10210000C7E70120EAE7C046FFFFFFF0FF7FFFFFC0
:102110000080000210B5036899691A68436B002BB0
:1021200000D0984710BD70477047000010B50400FC
:1021300003681A6842210020605451040CD51A68C3
:1021400019490A401A604123E35C292B0BD0412333
:10215000E35C2A2B17D010BD1204F4D51A6813497A
:102160000A401A60EFE718332822E254203B236329
:1021700001212000FFF731FF40230022E25420001C
:10218000FFF7D1FFE7E717332822E2541F3B236311
:1021900002212000FFF721FF40230022E25420000B
:1021A000FFF7C2FFD7E7C046FFBFFFFFFF7FFFFF7C
:1021B0007047F8B504004123C35C28221340282B44
:1021C00006D003680822DA6140230022C254F8BD19
:1021D00001688E69360C273B1E408D692D0CFE2749
:1021E0003D408B689B059B0DCA681740C268022A58
:1021F00024D1DA096A400620104211D1A26C0132C2
:10220000A264A26C022AE2D10022A2640230C86158
:10221000402162541A0031002000FFF7C9FFD6E7C1
:10222000802109022000FFF7D8FE40230022E2545B
:102230003A0031002000FFF7BBFFC8E78021090208
:10224000FFF7CBFE40230022E2542A003100200099
:10225000FFF7AEFFBBE7704710B50400164BC36233
:102260000023036341222020A0540132A35463635E
:102270004B0713D523685B6A626A1370636A013384
:102280006362238D002B09D0013B2385638D013BC5
:102290009BB26385636C0422134363640749200087
:1022A000FFF79BFE23681022DA6140230022E254EC
:1022B0002000FFF7D0FF10BD0000FFFF03800000EB
:1022C0007047704710B54123C35C602B06D00023D4
:1022D000036340228354FFF7F3FF10BD1F3B20220E
:1022E000C2540023036320328354FFF7EAFFF4E76C
:1022F00010B504004123C35C00204222A0543A4A96
:10230000E2626085626C0A436264283BDBB2022BA6
:102310001BD803212000FFF760FE41232822E2544E
:10232000324B6363236BA26B002A03D0112B1AD0AC
:10233000212B18D0E26B002A03D0122B33D0222B92
:1023400031D02000FFF7BEFF10BD29492000FFF764
:1023500044FE4123E35C602B02D041232022E2545F
:1023600000236363DEE723681A68520403D51A6802
:1023700020490A401A60A06BFFF738FD01280ED0F3
:10238000A36B1D4A9A6340230022E254A06BFFF71F
:1023900087FC0028D8D0A06B836B9847D4E7200037
:1023A000FFF790FFD0E723681A68120403D51A6874
:1023B00012490A401A60E06BFFF718FD01280ED0A1
:1023C000E36B0D4A9A6340230022E254E06BFFF76F
:1023D00067FC0028B8D0E06B836B9847B4E7200017
:1023E000FFF770FFB0E7C0460000FFFF6925000857
:1023F00003800000FFBFFFFF13270008FF7FFFFFE0
:1024000070B504000D00026816684123C35CD9B2A0
:102410002020D061212B0CD029290AD0222901D0DB
:102420002A290CD14A492000FFF7D7FD2223236334
:1024300005E048492000FFF7D0FD212323632268EF
:10244000516880231B020B43536022685368424942
:102450000B4053602000FFF7B1FD730441D52268A3
:1024600013683E490B401360A36B002B03D01B681D
:102470005B689BB263856B0711D504239D4323687A
:102480005B6A626A1370636A01336362238D002B97
:1024900005D0013B2385638D013B9BB26385638D32
:1024A0009BB2002B03D0636C0422134363640023AC
:1024B0004222A3546363636C002B21D1E26A284B50
:1024C0009A422AD14123E35C222B36D04123202299
:1024D000E254002323632032A3542000FFF723FE9D
:1024E0002AE03304C7D5226813681E490B401360E5
:1024F000E36B002BBFD01B685B689BB26385BAE7B8
:10250000616C2000FFF7F4FE4123E35C282B13D11C
:1025100029002000FFF7A0FE0EE02000FFF706FED6
:102520000F4BE36241232022E25400232363203235
:10253000A3542000FFF78FFE70BD1F332022E2540A
:10254000002323632032A3542000FFF7EDFDF3E7BF
:10255000028000000180000000E800FEFFBFFFFFD6
:102560000000FFFFFF7FFFFFF8B504000D0016001D
:10257000C76A4023C35C012B00D196E001234022AF
:1025800083544A09134201D0B30617D4EB0640D551
:10259000F3063ED5638D9BB2002B28D14133E35C1B
:1025A000282B0ED04123E35C292B13D02368102263
:1025B000DA6140230022E2540020F8BDFFF720FF3B
:1025C000E4E780239B049F42ECD129002000FFF721
:1025D00043FEEEE7364B9F42E8D023681022DA61D3
:1025E0002000FFF7EBFC2000FFF7A0FDE1E72368E8
:1025F0001022DA61636C0C3A13436364002F03D03A
:1026000080235B049F42D4D1616C2000FFF770FEF1
:10261000CFE76B071ED573071CD5638D9BB2002BCC
:102620000DD023685B6A626A1370636A0133636268
:10263000238D013B2385638D013B9BB26385638DB5
:102640009BB2002BB5D11A4B9F42B2D02000FFF7AE
:102650006DFDAEE72B0701D5330716D4AB07A8D520
:10266000B307A6D5638D9BB2002B13D02368626A93
:1026700012789A62636A01336362638D013B9BB295
:102680006385238D013B238593E729002000FFF715
:1026900090FD8EE780235B049F4202D0002F00D084
:1026A00087E72000FFF742FD83E7022085E7C04669
:1026B0000000FFFF70B5026893691168DC0508D55A
:1026C0000C0606D5446C01252C4344648024640028
:1026D000D4615A0509D50A0607D5426C082422435D
:1026E000426402688024E400D4619B0509D50B068E
:1026F00007D5436C0222134343640368FF32FF3261
:10270000DA61416C0B230B4200D170BDFFF7F0FD85
:10271000FBE710B5806A836B002B01D000229A631F
:10272000C36B002B01D000229A63FFF7CBFD10BDD5
:10273000F0B54123C35C202B20D12033C35C012B97
:102740001ED040240122025541252423435506680A
:10275000336893433360066833680A4F3B40336005
:10276000066833681943316001680B6813430B60D6
:1027700020234355002303550020F0BD0220FCE731
:102780000220FAE7FFEFFFFFF0B54123C35C202BE7
:102790001ED12033C35C012B1CD0402401220255E2
:1027A0004125242343550668336893433360066804
:1027B0003368094F3B4009021943316001680B68D7
:1027C00013430B6020234355002303550020F0BD25
:1027D0000220FCE70220FAE7FFF0FFFF10B5104AE5
:1027E000136810490B400343136080239B009842F9
:1027F00001D0002010BD0C4B1B685800C0184000D1
:102800000A49FDF781FC0130054B5B695B0503D587
:10281000002803D00138F7E70020EBE70320E9E7C1
:1028200000700040FFF9FFFF0000002040420F0051
:1028300070B582B0041E00D129E20368DB0739D5E8
:10284000C14A916838230B40D16803220A40102BFB
:1028500026D0082B26D063688022520293427FD074
:10286000A022D202934200D181E0B74B1A68B74947
:102870000A401A601A68B6490A401A606368002B59
:1028800000D180E0FEF7D0FD0500AF4B1B689B0335
:1028900010D4FEF7C9FD401B6428F6D90320F7E1E8
:1028A000032AD6D1A84B1B689B0303D56368002B72
:1028B00000D1EFE123689B0731D5A34A9368382103
:1028C0000B40D16803220A40102B6AD0002B6BD139
:1028D0009D4A1268520503D5E268002A00D1DBE167
:1028E000994842689B490A40616909020A4342606B
:1028F000002B0DD1036898490B4021690B430360FD
:102900000368DB0A07221A40944BD340944A1360B1
:10291000944B1868FEF7D2F9002800D0BEE1236876
:102920001B0700D481E0884B9A6838231340182B8A
:1029300073D0A369002B00D1B4E0834A136E012148
:102940000B431366FEF770FD05007F4B1B6E9B0764
:102950006BD4FEF769FD401B0228F6D9032097E1EE
:10296000794A116880235B020B43136086E7764B3C
:1029700019688022D2020A431A6019688022520222
:102980000A431A607AE7FEF74FFD05006E4B1B689D
:102990009B038FD5FEF748FD401B6428F6D9032022
:1029A00076E1022A92D193E7E368002B22D0664AAF
:1029B000136869490B4021690B4313601168802338
:1029C0005B000B431360FEF72FFD05005E4B1B6899
:1029D0005B0506D4FEF728FD401B0228F6D903202C
:1029E00056E159494B685B4A13406269120213432E
:1029F0004B6094E7544A13685B490B401360FEF741
:102A000013FD0500504B1B685B0588D5FEF70CFDD8
:102A1000401B0228F6D903203AE14B4B1B6E9B0763
:102A200003D5A369002B00D13AE123685B0700D4EA
:102A3000A2E0454B9A6838231340202B45D0424BE7
:102A4000DB6BDB004AD4404AD16B80204005014358
:102A5000D163D36B03400193019B0125434B1B685A
:102A6000DB053DD5A368012B4ED0052B52D0364B4C
:102A7000DA6D01218A43DA65DA6D03318A43DA655A
:102A8000A368002B50D0FEF7CFFC06002E4BDB6D69
:102A90009B076FD4FEF7C8FC801B354B9842F5D9D5
:102AA0000320F5E0284A136E01218B431366FEF7DD
:102AB000BBFC0500244B1B6E9B07B6D5FEF7B4FC90
:102AC000401B0228F6D90320E2E01F4BDB6D9B0779
:102AD00052D5A368002B4FD10120D9E00025BDE7D6
:102AE000224A116880235B000B431360FEF79CFCB5
:102AF00006001E4B1B68DB05B4D4FEF795FC801B5B
:102B00000228F6D90320C3E00F4AD36D01210B43FD
:102B1000D365B5E70C4BDA6D04210A43DA65DA6D4B
:102B200003390A43DA65ABE7FEF77EFC0600064B85
:102B3000DB6D9B071ED5FEF777FC801B0C4B984284
:102B4000F5D90320A4E0C04600100240FFFFFEFFBD
:102B5000FFFFFBFFFF80FFFFFFC7FFFF0024F40024
:102B60000000002008000020FFFEFFFF0070004072
:102B700088130000012D1ED0E369002B00D191E0E5
:102B80004F4A916838220A40102A5ED0022B18D092
:102B90004B4A13684B490B401360FEF745FC040099
:102BA000474B1B689B0149D5FEF73EFC001B0228E2
:102BB000F6D903206CE0424AD36B43490B40D36300
:102BC000DAE73F4A13683F490B401360FEF72CFCDD
:102BD00005003B4B1B689B0106D5FEF725FC401BFF
:102BE0000228F6D9032053E0354AD3683749194003
:102BF000236A606A0343A06A00020343E06A034356
:102C0000206B03430B43D360116880235B040B43A9
:102C10001360D16880235B050B43D360FEF704FC8F
:102C20000400274B1B689B0106D4FEF7FDFB001B2D
:102C30000228F6D903202BE0002029E0204AD3689F
:102C400023490B40D360002022E0012B2CD01C4BE9
:102C5000DA6803231340216A8B4227D17023134083
:102C6000616A8B4224D1FE21C9011140A36A1B0273
:102C700099421FD1F8239B031340E16A8B421BD179
:102C8000520F5207236B9A4218D1002000E0012016
:102C900002B070BD0120FBE70120F9E70120F7E752
:102CA0000120F5E70020F3E70120F1E70120EFE73D
:102CB0000120EDE70120EBE70120E9E70120E7E74C
:102CC00000100240FFFFFFFEFFFFFFEF8C80C11FDF
:102CD000FCFFFEEF10B52A4B9B6838221A4207D141
:102CE000274B1A68D20A072313402648D84010BD44
:102CF000234B9A6838231340082B3BD0204B9A680B
:102D000038231340102B0DD01D4B9A6838231340E5
:102D1000202B31D01A4B9A6838231340182B26D019
:102D20000020E4E7164AD1680D3B0B40D268120937
:102D3000072111400131032B0FD01248FDF7E4F9B0
:102D40000F4BDA68120A7F23134058430C4BD968A3
:102D5000490F0131FDF7D8F9C9E70A48FDF7D4F961
:102D6000074BDA68120A7F2313405843EEE7FA2034
:102D7000C001BCE70348BAE780200002B7E7C046BD
:102D8000001002400024F40070B504000D0000287B
:102D900000D1AAE0574B1A68072313408B4221D376
:102DA00023689A070ED55B0705D5534A9168E0233F
:102DB000DB010B439360504A936850490B40A16874
:102DC0000B4393602368DB0754D56368012B20D045
:102DD000022B3BD0002B3FD1474A126852051CD42E
:102DE00001206AE0434A136807218B432B43136099
:102DF000FEF71AFB06003F4B1A6807231340AB424D
:102E0000CED0FEF711FB801B3D4A9042F3D9032040
:102E100053E0394A1268920369D537498A68072016
:102E2000824313438B60FEF7FFFA0600324B9B6828
:102E300038221A406368DB009A421BD0FEF7F4FA8E
:102E4000801B2F4B9842F1D9032036E02A4A1268A2
:102E50009201E2D4012030E0032B05D0264AD26D46
:102E60009207DAD4012028E0234A126E9207D4D4C4
:102E7000012022E01F4B1A6807231340AB421DD8E4
:102E800023685B0706D51C4A93681E490B40E1681E
:102E90000B439360FFF71EFF174B9A68120A0F232C
:102EA00013409B00184A9A581F231340D840174BD1
:102EB0001860174B1868FDF701FF70BD0D4A1368C5
:102EC00007218B432B431360FEF7AEFA0600094B34
:102ED0001A6807231340AB42D2D0FEF7A5FA801B35
:102EE000074B9842F3D90320E7E70120E5E70120EB
:102EF000E3E7C0460020024000100240FFF0FFFF61
:102F000088130000FF8FFFFFE4640008000000202A
:102F100008000020014B18687047C04600000020E0
:102F200010B5FFF7F7FF064B9A68120B0723134003
:102F30009B00044A9A581F231340D84010BDC04636
:102F4000001002402465000830B507230360094AD9
:102F500094681C4044609468F0252D012C408460E6
:102F60009268E024E4012240C260034A12681340E0
:102F70000B6030BD0010024000200240F0B583B06D
:102F8000040003689B0362D5584BDB6BDB001ED447
:102F9000564AD16B802040050143D163D36B034077
:102FA0000193019B0126524A116880235B000B4369
:102FB0001360FEF739FA05004D4B1B68DB0508D49A
:102FC000FEF732FA401B0228F6D9032502E000265C
:102FD000E9E70025002D23D1444BD96DC022920092
:102FE0000B001340114210D0A2699A420DD03F4A03
:102FF000D36D40490B40D06D802149020143D1651A
:10300000D16D3D480140D165D365DB0710D4002D5B
:1030100006D1364AD36D37490B40A1690B43D365BE
:10302000012E15D1314AD36B34490B40D3630FE0E5
:10303000FEF7FAF907002D4BDB6D9B07E7D4FEF78F
:10304000F3F9C01B2E4B9842F5D90325DFE7002585
:103050002368DB0706D5254A536D03218B4361683E
:103060000B43536523689B0706D5204A536D0C21FB
:103070008B43A1680B43536523689B0606D51B4A07
:10308000536D20490B40E1680B43536523685B0493
:103090000BD5164A536D9B009B0861690B43536522
:1030A0008023DB0562699A4211D023681B050BD58A
:1030B0000E4A536D14490B4021690B435365226935
:1030C0008023DB019A4209D0280003B0F0BD074AF3
:1030D000D16880235B020B43D360E6E7034AD168E3
:1030E00080235B020B43D360EEE7C0460010024032
:1030F00000700040FFFCFFFFFFFFFEFFFFFFFFEF40
:1031000088130000FFCFFFFFFF3FFFFFF0B5D6465B
:103110004F464646C0B582B006000D0090461F00DF
:10312000FEF782F90A9B181A8146B944FEF77CF92A
:1031300082462E4B1B685B011B0D4A46534301938D
:1031400033689C682C40641B63425C41444545D015
:103150007B1CF5D0FEF768F95346C01A48450BD2E0
:103160004B46002B08D0019A002A00D04A46019B0A
:10317000013B01939146E3E732685368E0218B43BA
:10318000536082235B0072689A420CD080239B01BB
:10319000B26A9A4216D05D230122F254013B00220A
:1031A000F25403201BE0B36880221202934203D042
:1031B0008022D2009342E9D13268136840218B43C8
:1031C0001360E3E73268136809490B401360326803
:1031D000116880239B010B431360DCE7002002B0E1
:1031E000E0BCBA46B146A846F0BDC046000000208B
:1031F000FFDFFFFFF0B5DE4657464E464546E0B5D9
:1032000083B007000D00160098466B460022DA7066
:10321000FEF70AF90C9B181A40448146FEF704F9A0
:1032200082463B689B46364B1A6893009A18D30037
:103230009B1A1B0D4A465343019302E04346013358
:1032400011D13B689C682C40B44250D0C023DB00B5
:103250009D42F3D1002EF1D15B461B7BDBB26A4667
:10326000D370D378EAE7FEF7DFF85346C01A484533
:103270000BD24B46002B08D0019A002A00D04A46B8
:10328000019B013B01939146DBE73A685368E021DB
:103290008B43536082235B007A689A420CD0802370
:1032A0009B01BA6A9A4216D05D230122FA54013B6F
:1032B0000022FA5403201BE0BB68802212029342D2
:1032C00003D08022D2009342E9D13A6813684021AA
:1032D0008B431360E3E73A6813680A490B401360B5
:1032E0003A68116880239B010B431360DCE70020E0
:1032F00003B0F0BCBB46B246A946A046F0BDC046EE
:1033000000000020FFDFFFFF70B582B004000D0059
:103310001600C02100922B0000224901FFF76AFF2E
:10332000002818D100962B00002280212000FFF7F2
:10333000EDFE002816D1C02100962B000022C90006
:103340002000FFF757FF00280AD0236E20221343E6
:103350002366032004E0236E202213432366032008
:1033600002B070BD236E2022134323660320F7E7CB
:1033700070B5041E00D178E0436A002B07D10533F5
:10338000FF3342689A4205D00023C36102E0002364
:10339000036143610023A3625D33E35C002B5AD0D9
:1033A0005D230222E2542268136840218B4313609C
:1033B000E368E022D200934254D90022F0210901AF
:1033C0008B4205D0E021C9008B4201D00023A362CB
:1033D00082235B0061680B4084210902A0680140E0
:1033E0000B430221206901400B4301216069084021
:1033F000034380208000A569284003433820E56905
:10340000284003438020256A284003438020800110
:10341000A56A2840034320680360608B04230340AF
:103420001020656A284003430820656B2840034349
:10343000F0200001E56828400343206813434360FF
:103440002268D3690A480340D361002323665D33B1
:10345000E154002070BD5C330022E2542000FDF7EF
:10346000C7FB9DE780225201A8E70120F2E7C04692
:10347000FFF7FFFFF0B5CE4600B584B00400019120
:1034800091461D005C23C35C012B00D1C9E05C2385
:103490000122C254FDF7C8FF06005D23E35CDFB2E2
:1034A000012B00D0A9E00199002900D1A6E04B46EC
:1034B000002B00D1A2E05D230322E2540023236607
:1034C000A1634A46A287E28723644422A3520232C0
:1034D000A3522365E36480231B02A2689A421ED094
:1034E00023681A68520603D41A6840210A431A60F6
:1034F000E023DB00E2689A4239D96368002B02D0EE
:103500004B46012B20D12368A26B1288DA60A36B93
:103510000233A363E38F013B9BB2E38714E022688D
:10352000136840218B431360226811688023DB01FC
:103530000B431360D4E7FDF777FF801BA84201D34C
:103540006B1C66D1002D66D0E18F89B200293CD07A
:1035500023689A689207EED5A26B1288DA60A36B93
:103560000233A363E38F013B9BB2E387ECE763681D
:10357000002B02D04B46012B14D1A36B1B78226881
:103580001373A36B0133A363E38F013B9BB2E38708
:1035900008E0FDF749FF801BA84201D36B1C3CD11A
:1035A000002D3CD0E18F89B200290ED023689A68A3
:1035B0009207EED5A26B12781A73A36B0133A36343
:1035C000E38F013B9BB2E387ECE732002900200048
:1035D000FFF79AFE002801D020232366A368002B62
:1035E00006D103932368DA6803929B680393039BD5
:1035F000236E002B02D1002700E002275D23012269
:10360000E254013B0022E254380004B080BCB946C9
:10361000F0BD0327F2E70327F0E70327EEE70327D0
:10362000ECE70227F0E7000030B5036A012293437C
:103630000362036A42688469184D2C400D682C436C
:103640000225AB438D682B43154DA84208D0154D7C
:10365000A84205D0144DA84202D0144DA84205D16D
:103660000825AB43CD682B430425AB430C4DA84242
:1036700008D00C4DA84205D00B4DA84202D00B4DEE
:10368000A84205D10A4D2A404D692A438D692A4333
:10369000426084614A684263036230BD8CFFFEFF72
:1036A000002C01400040014000440140004801401E
:1036B000FFFCFFFF70B5036A194A13400362036AF7
:1036C0004268C469174D2C400E682643164C2340AF
:1036D0008C6824022343154CA04219D0134CA042FD
:1036E00008D0134CA04205D0124CA04202D0124C7C
:1036F000A04207D1114C14404A69120122438C693F
:1037000025012A434260C6614A68C263036270BDF4
:103710000B4C1C40CB681B0223430A4C2340DDE7C3
:10372000FFFEFFFF8CFFFEFFFFFDFFFF002C0140AF
:10373000004001400044014000480140FFCFFFFF2E
:10374000FFF7FFFFFFFBFFFF30B5036A134A13408B
:103750000362026A4368C469114D2C400D682D0252
:103760002C43104D15408A6812032A430E4DA8427F
:1037700008D00E4DA84205D00D4DA84202D00D4DE7
:10378000A84204D10C4D2B404D69AD012B43436041
:10379000C4614B680364026230BDC046FFEFFFFFA7
:1037A000FF8CFFFEFFDFFFFF002C014000400140C7
:1037B0000044014000480140FFBFFFFF30B5036AED
:1037C000124A13400362026A4368446D104D2C4054
:1037D0000D682C430F4D15408A6812042A430E4D84
:1037E000A84208D00D4DA84205D00D4DA84202D0E8
:1037F0000C4DA84204D1054D2B404D692D022B43A1
:10380000436044654B688365026230BDFFFFFEFF85
:103810008FFFFEFFFFFFFDFF002C01400040014035
:10382000004401400048014030B5036A134A134088
:103830000362026A4368446D114D2C400D682D02ED
:103840002C43104D15408A6812052A430E4DA8429C
:1038500008D00E4DA84205D00D4DA84202D00D4D06
:10386000A84204D10C4D2B404D69AD022B4343605F
:1038700044654B68C365026230BDC046FFFFEFFF81
:10388000FF8FFFFEFFFFDFFF002C014000400140E3
:103890000044014000480140FFFFFBFF3D23C35CA3
:1038A000012B25D13C330222C2540268D368012186
:1038B0000B43D3600368114A93420BD0104A9342E2
:1038C00008D0104A934205D01A6801210A431A60B1
:1038D00000200EE09A680C490A40062A0AD00739EF
:1038E0008A4209D01A6801210A431A60002000E0C8
:1038F000012070470020FCE70020FAE7002C01407F
:10390000000400400040014007000100704770477C
:103910007047704710B5040003681A6992070FD505
:10392000DA6892070CD5032252421A610123037709
:1039300003689B699B076AD0FFF7E9FF00232377A1
:1039400023681A69520712D5DA6852070FD5052283
:1039500052421A610223237723689A69C0239B008D
:103960001A425AD02000FFF7D2FF002323772368A2
:103970001A69120710D5DA6812070DD509225242CA
:103980001A61042323772368DB699B074CD020004E
:10399000FFF7BDFF0023237723681A69D20612D5EB
:1039A000DA68D2060FD5112252421A610823237712
:1039B0002368DA69C0239B001A423CD02000FFF73D
:1039C000A6FF0023237723681A69D20702D5DA6895
:1039D000D20737D423681A69120602D5DA681206AC
:1039E00037D423681A69D20502D5DA68120637D4AB
:1039F00023681A69520602D5DA68520636D423685B
:103A00001A69920602D5DA68920636D410BDFFF71D
:103A10007DFF2000FFF77CFF90E72000FFF776FF97
:103A20002000FFF775FFA0E72000FFF76FFF2000E1
:103A3000FFF76EFFAEE72000FFF768FF2000FFF7FB
:103A400067FFBEE7022252421A612000FDF73AF8F2
:103A5000C0E7812252421A61200000F04AFAC0E712
:103A6000094A1A61200000F045FAC1E7412252429A
:103A70001A612000FFF74DFFC1E7212252421A616F
:103A8000200000F035FAC1E7FFFEFFFF03681D4A82
:103A9000904202D01C4A904203D1702293434A685C
:103AA0001343184A90420ED0174A90420BD0174A3F
:103AB000904208D0164A904205D0164A904202D051
:103AC000154A904203D1154A1340CA681343802215
:103AD00093434A69134303608B68C3620B68836234
:103AE000084B984208D00A4B984205D0094B98429F
:103AF00002D0094B984201D10B6903630123436152
:103B00007047C046002C01400004004000200040E7
:103B1000004001400044014000480140FFFCFFFF1D
:103B200070B5041E2AD03D23C35C002B20D03D2558
:103B300002236355210001C9FFF7A8FF0123482292
:103B4000A3540A3AA3540132A3540132A3540132BC
:103B5000A3540132A3540132A3540132A3540132BD
:103B6000A3540132A3540132A3546355002070BD05
:103B70003C330022C254FDF775F9D8E70120F6E77F
:103B800070B5041E2AD03D23C35C002B20D03D25F8
:103B900002236355210001C9FFF778FF0123482262
:103BA000A3540A3AA3540132A3540132A35401325C
:103BB000A3540132A3540132A3540132A35401325D
:103BC000A3540132A3540132A3546355002070BDA5
:103BD0003C330022C254FDF72FF9D8E70120F6E765
:103BE00070B5036A102293430362036A42688469D2
:103BF000174D2C400D682D0225432024A3438C68CB
:103C000024012343134CA04219D0124CA04208D0E7
:103C1000114CA04205D0114CA04202D0104CA04241
:103C200007D1104C14404A69920022438C69A600C7
:103C30003243426085614A688263036270BD8024BA
:103C4000A3431C00CB681B0123434024A343DCE7B0
:103C5000FF8CFFFE002C0140004001400044014069
:103C600000480140FFF3FFFF70B504000D003C2346
:103C7000C35C012B00D192E03C230121C154142AE2
:103C800000D987E09200474B9B589F462900006867
:103C9000FFF7CAFC2268936908210B4393612268ED
:103CA000936904398B4393612268936929690B43B3
:103CB000936100206FE029000068FFF791FF226800
:103CC000916980231B010B439361226893693649F4
:103CD0000B40936121688B692A69120213438B613F
:103CE000002058E029000068FFF7E4FC2268D3694F
:103CF00008210B43D3612268D36904398B43D36114
:103D00002268D36929690B43D361002043E029006D
:103D10000068FFF719FD2268D16980231B010B435E
:103D2000D3612268D36920490B40D3612168CB69F4
:103D30002A6912021343CB6100202CE0290000689D
:103D4000FFF73CFD2268536D08210B435365226841
:103D5000536D04398B4353652268536D29690B43B6
:103D60005365002017E029000068FFF75DFD226819
:103D7000516D80231B010B4353652268536D0A4923
:103D80000B40536521684B6D2A69120213434B6542
:103D9000002000E001203C230022E25470BD0220FC
:103DA000FCE7C04644650008FFFBFFFF30B53C233D
:103DB000C35C012B2CD03C230122C25401330132BD
:103DC000C254026853689468124DAA421BD07025F1
:103DD000AB430D682B43536003680E4A934205D0F2
:103DE0000D4A934202D00D4A934204D1802294435B
:103DF0008A6814439C603D230122C254013B002287
:103E0000C254002030BD064D2B404D682B43DEE7E9
:103E10000220F7E7002C0140000400400040014070
:103E2000FFFF0FFF10B53C23C35C012B44D03C23A4
:103E30000122C254214BCA6813408A681343204AA6
:103E400013404A6813431F4A13400A6813431E4A2B
:103E500013400A6913431D4A13404A6913431C4A1D
:103E600013400A6B13431B4A13408A69120413431D
:103E70000268194CA24208D0174CA2420AD05364DF
:103E80003C230022C254002010BD144C2340CC69B6
:103E90002343F1E7124C23408C6A24052343114C41
:103EA00023400C6A2343104C23404C6A23430F4C9D
:103EB0002340C96A0B43E2E70220E5E7FFFCFFFF6E
:103EC000FFFBFFFFFFF7FFFFFFEFFFFFFFDFFFFF3E
:103ED000FFBFFFFFFFFFF0FF002C0140FFFFFFEFE0
:103EE000FFFF0FFFFFFFFFFEFFFFFFFDFFFFFFDFF5
:103EF000704770477047000030B5EFF3108401221F
:103F000082F3108801680B68124D2B400B6084F31C
:103F10001088EFF3108182F31088026893680E4CCA
:103F20002340936081F31088C36E012B06D08C234D
:103F30002022C2500023C366436730BDEFF31081D7
:103F400083F31088026813681024A343136081F37D
:103F50001088ECE7DFFEFFFFFEFFFFEF704710B5B4
:103F6000EFF31081012383F3108802681368402463
:103F7000A343136081F3108888232022C2500023BA
:103F80008367FFF7EBFF10BD704710B5806A002311
:103F90005E228352083A8352FFF7F6FF10BD704746
:103FA000F8B504000268D36910689568BD491E0021
:103FB0000E400B4205D1990603D581062CD4E900A9
:103FC0002AD4002E07D0B8492E000E400D4229D128
:103FD000B649084226D1E16E012900D1AAE0D902F2
:103FE00002D5690200D543E11A0605D5020600D5BF
:103FF00045E12A0200D542E15A0602D5420600D523
:1040000044E11A0202D5420000D543E1DB0102D5AA
:10401000002800DA42E1F8BD636F002BFBD02000DE
:104020009847F8E7D90707D5C10505D501271762D5
:10403000902162583A4362509A0709D5EA0707D59A
:104040002268022111628E31625804273A4362507D
:104050005A0709D5EA0707D52268042111628C3175
:10406000625802273A4362501A070AD5820601D4E1
:10407000002E06D02268082616629021625832432C
:1040800062501A050AD5420108D52268802109012B
:104090001162902162582026324362509022A25829
:1040A000002AB8D09B0608D5830601D4EB0004D5BE
:1040B000636F002B01D0200098479023E2582368BB
:1040C0009B685B0602D4282313422CD02000FFF704
:1040D00013FF23689B685B0621D5EFF31081012352
:1040E00083F310882268936840208343936081F3B0
:1040F00010888023E358002B0DD06D4A9A638023EB
:10410000E058FDF7CDFD002800D184E78023E0587A
:10411000836B98477FE72000FFF736FF7BE720009F
:10412000FFF732FF77E72000FFF72EFF90230022F2
:10413000E25070E7D90600D451E7C10600D44EE73B
:104140001023136223689B685B0655D58023E258D1
:1041500013685B689BB2002B00D15CE75C21615A5D
:10416000994200D857E75E21635213681B689B068B
:104170000BD5022323675A33E15A0233E35AC91A93
:1041800089B22000FFF70BFF45E7EFF31080012312
:1041900083F3108821680A68464D2A400A6080F33C
:1041A0001088EFF3108083F3108821688A689A439F
:1041B0008A6080F31088EFF3108083F31088216801
:1041C0008A684235FF35AA438A6080F310888C22C2
:1041D0002021A1500022E266EFF3108183F31088C2
:1041E0002268136810208343136081F310888023B2
:1041F000E058FDF715FDBCE75C23E15A0233E25AB3
:10420000891A89B2E35A9BB2002B00D103E7002937
:1042100000D100E7EFF31085012383F310882068B5
:104220000268254E3240026085F31088EFF3108556
:1042300083F3108820688268204E3240826085F3C4
:1042400010888C222020A0500022E2666267EFF3E3
:10425000108083F31088226813681025AB43136025
:1042600080F31088022323672000FFF798FED2E630
:1042700080235B031362200000F096FACBE6A36F65
:10428000002B00D1C7E620009847C4E62000FFF7C6
:1042900066FEC0E6200000F089FABCE6200000F0CF
:1042A00084FAB8E60F0800000100001020010004A5
:1042B0008B3F0008FFFEFFFFDFFEFFFFFEFFFFEF6B
:1042C00010B5040083680269134342691343C2694D
:1042D000134301680A686B48024013430B6022686D
:1042E000536869490B40E1680B435360226AA36934
:1042F0001A4321688B686548034013438B6022682A
:10430000D36A0F218B43616A0B43D3622368604AEF
:1043100093420AD05F4A93423ED05F4A93425CD0B8
:104320005E4A934249D010230BE05D4B5A6D032344
:104330001340022B43D02BD8002B42D0012B42D16B
:104340000333E06980221202904248D0042B00D14E
:1043500091E07AD8002B00D186E0022B73D151482E
:10436000636A5B00504A995AFBF7CEFE63685B08AC
:10437000C0186168FBF7C8FE0200103A4B4B9A4226
:1043800000D97DE023680004000CD860002062E0C2
:10439000032B1AD10533D4E7414B5A6D0C2313403C
:1043A000082B14D005D8002B13D0042BC9D0102310
:1043B000C7E70C2B0FD1043BC3E70023C1E702235F
:1043C000BFE70023BDE71023BBE71023B9E70223B3
:1043D000B7E70023B5E71023B3E70023B1E7042BC9
:1043E0002ED023D8002B25D0022B1DD12D48636A57
:1043F0005B002D4A995AFBF787FE400063685B0813
:10440000C0186168FBF780FE0200103A274B9A4201
:1044100034D882B20F239A434008083B1840104317
:104420002368D860002016E0012014E0082BDED0BD
:10443000012010E0FEF774FD0028D8D100200AE02A
:10444000FEF748FCF8E7012005E0082B02D18020A8
:10445000000285E7012001236A22A352023AA352F7
:1044600000236367A36710BDFEF75AFD002800D044
:1044700076E70020EFE7FEF72DFCF7E70120EAE7FB
:104480000120E8E7F369FFCFFFCFFFFFFFF4FF1143
:10449000003801400044004000480040004C00400B
:1044A000001002400024F40098650008EFFF0000AF
:1044B000836ADB0706D5026853682C490B40C16A42
:1044C0000B435360836A9B0706D5026853682849EB
:1044D0000B40016B0B435360836A5B0706D5026890
:1044E000536824490B40416B0B435360836A1B079D
:1044F00006D50268536820490B40816B0B4353601B
:10450000836ADB0606D5026893681C490B40C16BC1
:104510000B439360836A9B0606D50268936818492B
:104520000B40016C0B439360836A5B060BD50268FA
:10453000536814490B40416C0B43536080235B0369
:10454000426C9A420AD0836A1B0606D502685368F9
:104550000D490B40C16C0B435360704702685368B0
:104560000A490B40816C0B435360ECE7FFFFFDFFF2
:10457000FFFFFEFFFFFFFBFFFF7FFFFFFFEFFFFFE0
:10458000FFDFFFFFFFFFEFFFFFFFF7FFFFFF9FFFD3
:10459000F8B5CE46474680B506000D00170099468F
:1045A000089B98463368DC692C40641B63425C417D
:1045B000BC4257D143460133F4D0FCF735FF4B469C
:1045C000C01A40452ED84346002B2BD033681A68BA
:1045D0005207E7D5DA691205E4D5802212011A6282
:1045E000EFF31080012282F3108831680B68204CB1
:1045F00023400B6080F31088EFF3108082F3108863
:1046000031688B6893438B6080F310882023873256
:10461000B3500432B3500432B35064330022F25426
:10462000032020E0EFF31080012282F3108831682C
:104630000B680F4C23400B6080F31088EFF3108061
:1046400082F3108831688B6893438B6080F3108805
:1046500020238732B3500432B35064330022F25423
:10466000032000E00020C0BCB946B046F8BDC046FB
:104670005FFEFFFF30B583B0040090230022C250DC
:10468000FCF7D2FE050022681268130710D42368D5
:104690001B685B0719D420238822A3500432A3503F
:1046A0000023E3662367083AA354002003B030BD1B
:1046B00080210C4B00930300002289032000FFF7A8
:1046C00067FF0028E3D00320F0E78021054B00932B
:1046D0002B000022C9032000FFF75AFF0028DAD080
:1046E0000320E3E7FFFFFF0110B5041E30D088234D
:1046F000C358002B22D088232422E250226813685A
:1047000001218B4313602000FFF7DAFD012814D04C
:10471000A36A002B18D1226853680E490B405360DE
:10472000226893682A218B43936022681368293991
:104730000B4313602000FFF79DFF10BD8433002260
:10474000C254FCF7C1FDD6E72000FFF7B1FEE2E757
:104750000120F2E7FFB7FFFFF8B50400436E002B1E
:1047600005D101336A228352023A8352F8BD0268AE
:1047700095686D0E07231D409268520F1340084F35
:10478000F85CC000074EF15CFBF748FD6A23E0527D
:10479000785DC000715DFBF741FD6823E052E5E7FD
:1047A000B8650008B06500087047704770470000A2
:1047B00070B58423C35C012B15D0842401260655D3
:1047C000882524234351026813681168B14311609E
:1047D000064A13400022426601680B6020234351C1
:1047E0000255002070BD0220FCE7C046FFFFFFDF3E
:1047F000F8B504000A008423C35C012B1BD0842578
:104800000120605588262423A35123681F68196856
:104810008143196020688368DB00D90811438160F7
:104820002000FFF799FF23681F602023A351002376
:1048300063550020F8BD0220FCE70000F8B5040035
:104840000B008422825C012A1BD084250120605544
:1048500088262422A25122681768116881431160BA
:104860002268916808480140194391602000FFF7D1
:1048700073FF23681F602023A3510023635500208A
:10488000F8BD0220FCE7C046FFFFFFF130B583B062
:104890006B4618700B0E6A4653700B0C93700B0A24
:1048A000D370117180252D02A024E4050022290077
:1048B0002000FDF75BFB6423052269460448FEF7F0
:1048C000D9FD012229002000FDF750FB03B030BDC7
:1048D0004007002010B5C820800001F01DF901211B
:1048E0008120FFF7D3FF2349EC20FFF7CFFF802182
:1048F00049019020FFF7CAFF0A219120FFF7C6FF68
:1049000004218020FFF7C2FFFA2149009320FFF71E
:10491000BDFF1949F020FFF7B9FF88214902A42003
:10492000FFF7B4FFA8214902A520FFF7AFFF134905
:10493000A620FFF7ABFF124B1968A720FFF7A6FFD1
:104940001049A820FFF7A2FF80210902AA20FFF743
:104950009DFF0A21AB20FFF799FF0021AC20FFF754
:1049600095FF0949B420FFF791FF0021A020FFF730
:104970008DFF10BDC3000300C8010700FF8F0100B9
:104980000C000020FF1F00005F07000010B5054B62
:104990001B6801F0CFF9012800D110BD00F092F999
:1049A000FBE7C04610E000E0EFF30583002B06D1E3
:1049B000064B1868002805D101221A6070470620AE
:1049C0004042FBE701204042F8E7C046CC0C002003
:1049D00010B5EFF30583002B0FD10B4B1B68012B98
:1049E0000ED10A4AD3691B021B0AD361064B02226D
:1049F0001A6000F045FF002010BD06204042FBE792
:104A000001204042F8E7C046CC0C002000ED00E059
:104A1000F0B587B000240594EFF30584002C38D15D
:104A2000002836D0002A2BD016689369002B00D1BD
:104A300018335C1E372C50D85468E4074FD457699C
:104A4000002F11D0BC08A4469468002C07D0D5686C
:104A50005B2D04D91569002D01D0002F1CD1002C2D
:104A600005D00124644210E08024A446ECE7D46819
:104A7000002C13D11469002C13D00124644204E0EB
:104A80001600002418238025AC46012C0BD0002CE6
:104A900015D0059807B0F0BD0124F6E70124644263
:104AA000F3E70024F1E714699268029201940093FD
:104AB0000B006246310000F087FE0590E9E7624690
:104AC00092B205AC019400930B00310000F0A6FEF9
:104AD0000128DED000230593DBE70020DAE7002081
:104AE000D8E70000034B0360034B0B608023136087
:104AF0007047C046700C0020700A0020034B036012
:104B0000034B0B6080235B0013607047D0100020C4
:104B1000D00C00200300083343600122524282601F
:104B2000C360036100230360704700230361704783
:104B300043684B609A688A605160996008610368B5
:104B400001330360704730B50C68631C10D003005C
:104B500008331A005B681D68A542FAD953684B6098
:104B600099608A605160086103680133036030BD59
:104B70000269F3E70369416882688A6041685160AD
:104B80005A68824206D0002202611A68013A1A600D
:104B90001868704782685A60F5E7000082B0002309
:104BA0000193064B1B68013301D072B6FEE772B663
:104BB000019B002BFCD002B07047C04610000020C3
:104BC0000B4A13681868203080F30988022080F3AC
:104BD0001488BFF36F8F3FBCAE4608BC04BC62B6FE
:104BE0001847C046C046C046C046C046C046C0463C
:104BF0008C1D002010B5031F802464041C60043B3E
:104C00001960043B02491960143B1A60403810BD1A
:104C10009D4B000870470000044B802252051A602B
:104C2000BFF34F8FBFF36F8F7047C04604ED00E0B6
:104C300072B6044A136801331360BFF34F8FBFF39A
:104C40006F8F704710000020064B1B68002B01D1AE
:104C500072B6FEE7013B034A1360002B00D162B637
:104C60007047C04610000020EFF3108072B6704706
:104C700080F3108870470000000000000000000072
:104C8000EFF309800E4B1A6820381060F0C04446DC
:104C90004D4656465F46F0C008B572B600F054FF68
:104CA00062B60CBC116808681030F0C8A046A9466E
:104CB000B246BB4680F309882038F0C81847C04682
:104CC0008C1D002010B5FFF7CFFF040000F026FE7A
:104CD000002803D0034B802252051A602000FFF702
:104CE000C7FF10BD04ED00E010B5084C00232360A1
:104CF000074A1360074B1868FA218900FBF704FA8A
:104D00000138054B18600723236010BD10E000E058
:104D100018E000E00000002014E000E010B50C4BAB
:104D20001968FF2212040A431A601968FF2212064A
:104D30000A431A60FFF7D8FF064B00221A60FFF7FC
:104D40003FFF00F001FFFFF729FF002010BDC04624
:104D500020ED00E010000020124A53071FD0D11DA3
:104D600007239943C0231B015B1A9B180A000E48B6
:104D7000026000214160D318083B072083430B48A1
:104D8000036059601960991A51601360084B1960EB
:104D9000084B1960084B802212061A607047C02326
:104DA0001B01E4E730110020441D00202C110020DD
:104DB000381D0020341D0020301D002010B5124B7E
:104DC0001A001B688342FBD351685418844208D0F0
:104DD00041684418A34209D00360904200D010609B
:104DE00010BD4068091851601000F1E7074C2468B5
:104DF000A34206D05B68C918416013681B68036052
:104E0000EBE70460E9E7C046441D00202C110020B8
:104E100070B5050000F074FD2E4B1B68002B14D0FC
:104E20002D4B1B682B4246D1002D05D008356B0752
:104E300002D007239D430835002D3ED0274B1B6829
:104E4000AB4241D3264A146804E0FFF785FFE7E749
:104E500022001C006368AB4202D22368002BF7D10A
:104E60001C4B1B68A34231D01668083623681360B8
:104E700063685B1B102B08D96019420701D072B61A
:104E8000FEE743606560FFF799FF626813490B68AE
:104E90009B1A0B60134909688B4201D211490B60C0
:104EA0000D4B1B6813436360002323600E4A136895
:104EB0000133136002E0002600E0002600F0B8FD98
:104EC000730705D072B6FEE70026F7E70026F5E780
:104ED000300070BD2C110020301D0020341D00203A
:104EE000441D0020381D00203C1D002070B5002806
:104EF00024D00500083D6B68114A12681A4201D19E
:104F000072B6FEE7010008390968002901D072B6BF
:104F1000FEE7083804009343436000F0F1FC636847
:104F2000084A11688C46634413602800FFF746FF67
:104F3000054A13680133136000F07AFD70BDC04666
:104F4000301D0020341D0020401D002010B504003D
:104F5000FFF76EFEA26BE36B9A4204D00024FFF7CA
:104F600073FE200010BD0124F9E710B50400FFF71F
:104F70005FFEA36B002B04D10124FFF765FE200028
:104F800010BD0024F9E770B504001500866B026CB3
:104F9000002A0CD10368002B03D000200136A66341
:104FA00070BD806800F0D8FE0023A360F6E7002DF6
:104FB0000ED1406801F032F96368226C9446634474
:104FC0006360A26893421BD3236863602800E5E70F
:104FD000C06801F023F9236C5A42E168CB1AE36000
:104FE00021688B4203D2A3689C466244E260022D92
:104FF00001D00020D2E7002E04D0013E0020CDE7F2
:105000002800CBE70020C9E710B5030008001A6CA0
:10501000002A0AD0D9688918D9609C68A14201D3B6
:105020001968D960D96801F0F9F810BD70B50500AC
:10503000FFF7FEFD4523EC5C64B201E0013C64B285
:10504000002C0BDD6B6A002B08D02800243000F008
:10505000E9FD0028F2D000F067FEEFE74523FF22CC
:10506000EA54FFF7F1FDFFF7E3FD4423EC5C64B283
:1050700001E0013C64B2002C0BDD2B69002B08D051
:105080002800103000F0CEFD0028F2D000F04CFED9
:10509000EFE74423FF22EA54FFF7D6FD70BD70B559
:1050A00004000D0000281DD0FFF7C2FD2268E36B4D
:1050B000206C010059435118A1600021A163626076
:1050C000013B4343D318E360FF234422A35401323E
:1050D000A354002D11D12369002B05D1FFF7B4FD96
:1050E000012070BD72B6FEE72000103000F09AFD7E
:1050F0000028F3D0FFF790FDF0E720001030FFF715
:1051000009FD20002430FFF705FDE7E770B51D001D
:10511000049C002909D12460E0632164012120005E
:10512000FFF7BDFF4C23E55470BD2260F4E770B576
:1051300084B01D0008AC2378002801D172B6FEE7C8
:10514000002D05D0002A05D0002903D172B6FEE754
:1051500072B6FEE7002A06D050240394039C502C1C
:1051600005D072B6FEE70029F6D072B6FEE7039CC2
:10517000462401262E550095FFF7C8FF280004B0ED
:1051800070BDF0B585B004000F0001921D0000282D
:1051900008D0002908D0022D0BD1E36B012B08D0D9
:1051A00072B6FEE772B6FEE7036C002BF3D072B660
:1051B000FEE700F0BFFD061E04D1019B002B34D09A
:1051C00072B6FEE7002630E02A0039002000FFF723
:1051D000DAFE636A002B06D100280DD1FFF734FDFB
:1051E000012005B0F0BD2000243000F01BFD002898
:1051F000F4D0FFF711FDF1E7FFF70EFDEEE7FFF743
:1052000023FD0020EDE702A800F04EFD013619E075
:1052100044230022E25420E045230022E25421E00E
:105220002000FFF703FF00F003FCFFF701FDA36B75
:10523000E26B9342C8D3022DC6D0019B002BDED077
:10524000002EE0D0FFF700FD00F05AFBFFF7F0FC66
:105250004423E25C52B2531CDAD04523E25C52B2E2
:10526000531CD9D0FFF7F0FC01A902A800F028FDDB
:10527000002813D12000FFF769FE0028D0D02000BD
:105280001030019900F0A4FC2000FFF7CFFE00F0E1
:10529000CFFB0028C9D1FFF7BFFCC6E72000FFF70E
:1052A000C5FE00F0C5FB00209BE7F0B5C64600B583
:1052B00082B004000F0001921D00002808D00029D0
:1052C00008D0022D0BD1E36B012B08D072B6FEE79C
:1052D00072B6FEE7036C002BF3D072B6FEE7FFF761
:1052E000C3FC0600A36BE26B93420AD3022D08D0E5
:1052F00000243000FFF7BCFC200002B080BCB846A0
:10530000F0BD4523E35C5BB29846A36B2A003900ED
:105310002000FFF738FE4346013306D043460133F1
:105320005BB24522A3540124E3E7636A002B01D159
:105330000124DEE72000243000F074FC002806D0B1
:10534000019A002A05D0012313600124D1E701242A
:10535000CFE70124CDE7F0B585B004000F0001923E
:1053600000280AD000290AD000F0E4FC061E0BD168
:10537000019B002B42D072B6FEE772B6FEE7036CCB
:10538000002BF1D072B6FEE7002637E0390020008E
:10539000FFF73AFE013DA5632369002B04D1FFF717
:1053A00053FC012005B0F0BD2000103000F03AFCA5
:1053B0000028F4D0FFF730FCF1E7FFF745FC0020B0
:1053C000F0E702A800F070FC013621E0442300223F
:1053D000E25428E045230022E25429E02000FFF7B0
:1053E00025FE00F025FB09E02000FFF71FFE00F07E
:1053F0001FFB2000FFF7B9FD002835D1FFF718FC8F
:10540000A56B002DC2D1019B002BD6D0002ED8D089
:10541000FFF71AFC00F074FAFFF70AFC4423E35C80
:105420005BB20133D2D04523E35C5BB20133D1D010
:10543000FFF70AFC01A902A800F042FC0028D3D122
:105440002000FFF792FD0028C8D0200024300199E9
:1054500000F0BEFB2000FFF7E9FD00F0E9FA0028AC
:10546000CCD1FFF7D9FBC9E700209BE710B500239B
:10547000072B0AD8DA00054C1259002A01D0013353
:10548000F6E7DB001951E318586010BD4C1D0020F1
:1054900070B504000D001600FFF7CAFB4423E35C5F
:1054A0005BB201330DD04523E35C5BB201330CD01A
:1054B000FFF7CAFBA36B002B0BD02000FFF7B6FD54
:1054C00070BD44230022E254EDE745230022E2545C
:1054D000EEE7200024303200290000F08BFBECE7DF
:1054E000084B1B681B68002B04D1074B012252425A
:1054F0001A607047034B1B68DB68DB685A68024B15
:105500001A60F6E7901D002038220020F0B5DE4634
:1055100057464646C0B582460F0014009B46089E7B
:105520000A9D9200A521286B00F0CAFE214B9C46E3
:105530006444A4002B6B9C46644407239C43A04610
:10554000002F33D000240F2C08D83A5D2B193433A8
:105550001A703B5D002B01D00134F4E74323002295
:10556000EA54372E00D93726EE62EE6400242C650B
:10557000281DFFF7DAFA28001830FFF7D6FA2D6158
:1055800038239E1BAE616D626C652033EC545A4625
:1055900051464046FFF72EFB2860099B002B00D0A8
:1055A0001D60E0BCBB46B246A846F0BD34230022D5
:1055B000EA54D6E7FFFFFF3F70B5002407E0A300E1
:1055C0001B1998000E4BC018FFF7A4FA0134372CB2
:1055D000F5D90C4D2800FFF79DFA0B4C2000FFF782
:1055E00099FA0A48FFF796FA0948FFF793FA09482B
:1055F000FFF790FA084B1D60084B1C6070BDC04659
:10560000981D00200C22002020220020442200208F
:10561000702200205C220020901D0020941D00209C
:1056200010B50400FFF704FB204A13680133136030
:105630001F4B1B68002B0CD01E4B1B68002B0DD181
:105640001B4B1B68DB6AE26A934207D8184B1C604D
:1056500004E0174B1C601368012B20D0164A136816
:10566000013313606364E36A144A1268934201D9F8
:10567000124A1360211D9800C0188000104BC018FA
:10568000FFF756FAFFF7E0FA0A4B1B68002B05D02C
:10569000074B1B68DA6AE36A9A4203D310BDFFF72F
:1056A0008BFFDBE7FFF7B8FAF8E7C046F8210020E8
:1056B0008C1D0020582200200422002008220020F7
:1056C000981D002010B504005923C35C002B05D0A1
:1056D000012B0AD0022B07D072B6FEE7006BFFF752
:1056E00005FC2000FFF702FC10BDFFF7FFFBFBE706
:1056F00010B514E0FFF79CFA0B4BDB68DC68201D4B
:10570000FFF738FA094A1368013B1360084A136827
:10571000013B1360FFF798FA2000FFF7D3FF044B1B
:105720001B68002BE6D110BD70220020F82100205C
:10573000FC21002010B5FFF7DBFF034B1B68012B9A
:10574000F9D9FFF769FAF6E7981D002070B5040053
:105750000D00174B1E68174B18680430FFF70AFA44
:10576000631C0DD03419134B1B685C60A64210D922
:10577000114B18680F4B19680431FFF7E4F970BD3D
:10578000002DEFD00B4B196804310C48FFF7D0F90E
:10579000F5E70B4B1868074B19680431FFF7D3F98D
:1057A000084B1B68A342EAD9064B1C60E7E7C046DA
:1057B000842200208C1D0020941D00205C220020EB
:1057C000901D00203822002070B586B00B9C002C64
:1057D00009D00C9C002C08D05C240494049C5C2C04
:1057E00005D072B6FEE772B6FEE772B6FEE7049C1D
:1057F0000C9C0B9D2563592402250C9E35550024D5
:105800000394029605AC01940A9C0094FFF77EFE77
:105810000C98FFF705FF059806B070BDF0B587B08E
:105820000490059116001F009000FFF7F1FA041E86
:105830001FD05C20FFF7ECFA051E16D00463002D84
:105840001BD000235922AB54039302950D9B019367
:105850000C9B00933B00320005990498FFF756FE1D
:105860002800FFF7DDFE012005E02000FFF73EFBEA
:10587000E5E70120404207B0F0BD01204042FAE7D1
:1058800010B588B000240594069407AA06A905A8B7
:10589000FFF728F9059B0293069B019300940023D0
:1058A000079A11491148FFF78FFF114B1860002824
:1058B00007D000F0FBFA012805D0431C11D008B036
:1058C00010BD0020F7E772B60A4B012252421A605F
:1058D000094B02321A60094B00221A60FFF71EFAC8
:1058E000EDE772B6FEE7C046C06500083557000810
:1058F0003422002038220020582200208422002058
:10590000024A1368013313607047C046002200202A
:10591000014B18687047C04684220020F8B5394B07
:105920001B68002B66D1384B1D6801351D60002DAA
:1059300012D1364B1B681B68002B01D072B6FEE7F4
:10594000324A1168324B186810601960314A136886
:1059500001331360FFF7C4FD2F4B1B68AB423FD9E7
:1059600000272E4B1B68DA6A93009B189A002C4B79
:10597000D358012B00D901272A4B1B68002B3ED09E
:1059800001273CE00127214B1B681B68002B29D015
:105990001E4B1B68DB68DC6863689D4227D3261DAD
:1059A0003000FFF7E7F8A36A002B03D0200018307F
:1059B000FFF7E0F8E26A1C4B1B689A4201D91A4BC8
:1059C0001A6093009B189800154BC0183100FFF720
:1059D000AFF8E26A114B1B68DB6A9A42D2D2D2E777
:1059E0000027D0E70C4B012252421A60B9E70A4A5D
:1059F0001360B6E70D4A13680133136000273800BF
:105A0000F8BDC0460022002084220020901D002006
:105A1000941D00203C220020382200208C1D0020F4
:105A2000981D00208822002008220020402200200B
:105A300070B5314B1B68002B01D172B6FEE7FFF742
:105A4000F7F82D4B1A68013A1A601B68002B4DD1EC
:105A50002A4B1B68002B01D1002448E00024284B6E
:105A60001B68002B23D0264BDB68DC682000183035
:105A7000FFF780F8251D2800FFF77CF8E36A214A2C
:105A80001268934201D91F4A13609800C018800021
:105A90001D4BC0182900FFF74BF81C4B1B68DB6A35
:105AA000E26A9A42DBD31A4B01221A60D7E7002C34
:105AB00001D0FFF715FD174B1C68002C0AD1144BC1
:105AC0001C68002C13D0FFF7A7F801240FE0013C5D
:105AD000002C07D0FFF722FF0028F8D00C4B012242
